{
  "address": "0xe4aec83Cba57E2B0b9ED8bc9801123F44f393037",
  "abi": [
    {
      "inputs": [
        {
          "internalType": "uint256",
          "name": "_fixedNativeFee",
          "type": "uint256"
        },
        {
          "internalType": "address",
          "name": "_aggregator",
          "type": "address"
        },
        {
          "internalType": "address",
          "name": "_feeTo",
          "type": "address"
        },
        {
          "internalType": "enum FeeHandler.QuoteType",
          "name": "_quoteType",
          "type": "uint8"
        },
        {
          "internalType": "address",
          "name": "_owner",
          "type": "address"
        }
      ],
      "stateMutability": "nonpayable",
      "type": "constructor"
    },
    {
      "inputs": [
        {
          "internalType": "enum FeeHandler.QuoteType",
          "name": "",
          "type": "uint8"
        }
      ],
      "name": "InvalidQuoteType",
      "type": "error"
    },
    {
      "inputs": [
        {
          "internalType": "address",
          "name": "owner",
          "type": "address"
        }
      ],
      "name": "OwnableInvalidOwner",
      "type": "error"
    },
    {
      "inputs": [
        {
          "internalType": "address",
          "name": "account",
          "type": "address"
        }
      ],
      "name": "OwnableUnauthorizedAccount",
      "type": "error"
    },
    {
      "inputs": [],
      "name": "Unauthorized",
      "type": "error"
    },
    {
      "anonymous": false,
      "inputs": [
        {
          "indexed": true,
          "internalType": "address",
          "name": "previous",
          "type": "address"
        },
        {
          "indexed": true,
          "internalType": "address",
          "name": "current",
          "type": "address"
        }
      ],
      "name": "FeeToChanged",
      "type": "event"
    },
    {
      "anonymous": false,
      "inputs": [
        {
          "indexed": false,
          "internalType": "uint256",
          "name": "previous",
          "type": "uint256"
        },
        {
          "indexed": false,
          "internalType": "uint256",
          "name": "current",
          "type": "uint256"
        }
      ],
      "name": "FixedNativeFeeChanged",
      "type": "event"
    },
    {
      "anonymous": false,
      "inputs": [
        {
          "indexed": true,
          "internalType": "contract IAggregator",
          "name": "previous",
          "type": "address"
        },
        {
          "indexed": true,
          "internalType": "contract IAggregator",
          "name": "current",
          "type": "address"
        }
      ],
      "name": "OracleImplementationChange",
      "type": "event"
    },
    {
      "anonymous": false,
      "inputs": [
        {
          "indexed": true,
          "internalType": "address",
          "name": "previousOwner",
          "type": "address"
        },
        {
          "indexed": true,
          "internalType": "address",
          "name": "newOwner",
          "type": "address"
        }
      ],
      "name": "OwnershipTransferred",
      "type": "event"
    },
    {
      "anonymous": false,
      "inputs": [
        {
          "indexed": false,
          "internalType": "enum FeeHandler.QuoteType",
          "name": "previous",
          "type": "uint8"
        },
        {
          "indexed": false,
          "internalType": "enum FeeHandler.QuoteType",
          "name": "current",
          "type": "uint8"
        }
      ],
      "name": "QuoteTypeChanged",
      "type": "event"
    },
    {
      "anonymous": false,
      "inputs": [
        {
          "indexed": false,
          "internalType": "uint256",
          "name": "previous",
          "type": "uint256"
        },
        {
          "indexed": false,
          "internalType": "uint256",
          "name": "current",
          "type": "uint256"
        }
      ],
      "name": "UsdFeeChanged",
      "type": "event"
    },
    {
      "inputs": [],
      "name": "DEFAULT_USD_FEE",
      "outputs": [
        {
          "internalType": "uint256",
          "name": "",
          "type": "uint256"
        }
      ],
      "stateMutability": "view",
      "type": "function"
    },
    {
      "inputs": [],
      "name": "aggregator",
      "outputs": [
        {
          "internalType": "contract IAggregator",
          "name": "",
          "type": "address"
        }
      ],
      "stateMutability": "view",
      "type": "function"
    },
    {
      "inputs": [],
      "name": "feeTo",
      "outputs": [
        {
          "internalType": "address",
          "name": "",
          "type": "address"
        }
      ],
      "stateMutability": "view",
      "type": "function"
    },
    {
      "inputs": [],
      "name": "fixedNativeFee",
      "outputs": [
        {
          "internalType": "uint256",
          "name": "",
          "type": "uint256"
        }
      ],
      "stateMutability": "view",
      "type": "function"
    },
    {
      "inputs": [],
      "name": "owner",
      "outputs": [
        {
          "internalType": "address",
          "name": "",
          "type": "address"
        }
      ],
      "stateMutability": "view",
      "type": "function"
    },
    {
      "inputs": [
        {
          "internalType": "uint32",
          "name": "",
          "type": "uint32"
        },
        {
          "internalType": "bytes",
          "name": "",
          "type": "bytes"
        },
        {
          "internalType": "bytes",
          "name": "",
          "type": "bytes"
        },
        {
          "internalType": "uint256",
          "name": "",
          "type": "uint256"
        },
        {
          "internalType": "uint256",
          "name": "",
          "type": "uint256"
        }
      ],
      "name": "quoteNativeFee",
      "outputs": [
        {
          "internalType": "uint256",
          "name": "nativeFee",
          "type": "uint256"
        }
      ],
      "stateMutability": "view",
      "type": "function"
    },
    {
      "inputs": [],
      "name": "quoteType",
      "outputs": [
        {
          "internalType": "enum FeeHandler.QuoteType",
          "name": "",
          "type": "uint8"
        }
      ],
      "stateMutability": "view",
      "type": "function"
    },
    {
      "inputs": [],
      "name": "renounceOwnership",
      "outputs": [],
      "stateMutability": "nonpayable",
      "type": "function"
    },
    {
      "inputs": [
        {
          "internalType": "contract IAggregator",
          "name": "_aggregator",
          "type": "address"
        }
      ],
      "name": "setAggregator",
      "outputs": [],
      "stateMutability": "nonpayable",
      "type": "function"
    },
    {
      "inputs": [
        {
          "internalType": "address",
          "name": "_feeTo",
          "type": "address"
        }
      ],
      "name": "setFeeTo",
      "outputs": [],
      "stateMutability": "nonpayable",
      "type": "function"
    },
    {
      "inputs": [
        {
          "internalType": "uint256",
          "name": "_fixedNativeFee",
          "type": "uint256"
        }
      ],
      "name": "setFixedNativeFee",
      "outputs": [],
      "stateMutability": "nonpayable",
      "type": "function"
    },
    {
      "inputs": [
        {
          "internalType": "enum FeeHandler.QuoteType",
          "name": "_quoteType",
          "type": "uint8"
        }
      ],
      "name": "setQuoteType",
      "outputs": [],
      "stateMutability": "nonpayable",
      "type": "function"
    },
    {
      "inputs": [
        {
          "internalType": "uint256",
          "name": "_usdFee",
          "type": "uint256"
        }
      ],
      "name": "setUsdFee",
      "outputs": [],
      "stateMutability": "nonpayable",
      "type": "function"
    },
    {
      "inputs": [
        {
          "internalType": "address",
          "name": "newOwner",
          "type": "address"
        }
      ],
      "name": "transferOwnership",
      "outputs": [],
      "stateMutability": "nonpayable",
      "type": "function"
    },
    {
      "inputs": [],
      "name": "usdFee",
      "outputs": [
        {
          "internalType": "uint256",
          "name": "",
          "type": "uint256"
        }
      ],
      "stateMutability": "view",
      "type": "function"
    }
  ],
  "transactionHash": "0x4ac2d9ecec9dbcc34527b3f8809214caaceaaf313ff4fe17463e890527e3c65c",
  "args": [
    0,
    "0x5f4eC3Df9cbd43714FE2740f5E3616155c5b8419",
    "0x60C801e2dfd6298E6080214b3d680C8f8d698F48",
    0,
    "0xDF2C270f610Dc35d8fFDA5B453E74db5471E126B"
  ],
  "numDeployments": 1,
  "solcInputHash": "5c7d034ff31adad0c8010a068cf0d78b",
  "bytecode": "0x60806040526005805460ff1916905534801561001a57600080fd5b50604051610bf6380380610bf683398101604081905261003991610163565b806001600160a01b03811661006857604051631e4fbdf760e01b81526000600482015260240160405180910390fd5b610071816100e1565b506003859055600280546001600160a01b038087166001600160a01b031992831617909255600180549286169290911691909117815560058054849260ff199091169083818111156100c5576100c5610131565b021790555050670de0b6b3a7640000600455506101c792505050565b600080546001600160a01b038381166001600160a01b0319831681178455604051919092169283917f8be0079c531659141344cd1fd0a4f28419497f9722a3daafe3b4186f6b6457e09190a35050565b634e487b7160e01b600052602160045260246000fd5b80516001600160a01b038116811461015e57600080fd5b919050565b600080600080600060a0868803121561017b57600080fd5b8551945061018b60208701610147565b935061019960408701610147565b92506060860151600281106101ad57600080fd5b91506101bb60808701610147565b90509295509295909350565b610a20806101d66000396000f3fe608060405234801561001057600080fd5b50600436106100f55760003560e01c8063a28598d411610097578063dbdaad3a11610066578063dbdaad3a146101da578063f2fde38b146101ed578063f46901ed14610200578063f9120af61461021357600080fd5b8063a28598d4146101a6578063a626b852146101b9578063bf01fb1c146101c2578063cbe95f8d146101cb57600080fd5b806355929b7e116100d357806355929b7e1461015e5780636d0f18c414610178578063715018a61461018d5780638da5cb5b1461019557600080fd5b8063017e7e58146100fa5780631f2c4cf51461012a578063245a7bfc1461014b575b600080fd5b60015461010d906001600160a01b031681565b6040516001600160a01b0390911681526020015b60405180910390f35b61013d610138366004610701565b610226565b604051908152602001610121565b60025461010d906001600160a01b031681565b60055461016b9060ff1681565b60405161012191906107ca565b61018b6101863660046107de565b610388565b005b61018b6103d1565b6000546001600160a01b031661010d565b61018b6101b43660046107de565b6103e5565b61013d60045481565b61013d60035481565b61013d670de0b6b3a764000081565b61018b6101e83660046107f7565b61042e565b61018b6101fb366004610834565b6104db565b61018b61020e366004610834565b610519565b61018b610221366004610834565b61057d565b60008060055460ff16600181111561024057610240610792565b0361035c57600260009054906101000a90046001600160a01b03166001600160a01b03166350d25bcd6040518163ffffffff1660e01b8152600401602060405180830381865afa158015610298573d6000803e3d6000fd5b505050506040513d601f19601f820116820180604052508101906102bc9190610851565b600454600260009054906101000a90046001600160a01b03166001600160a01b031663313ce5676040518163ffffffff1660e01b8152600401602060405180830381865afa158015610312573d6000803e3d6000fd5b505050506040513d601f19601f82011682018060405250810190610336919061086a565b61034190600a610987565b61034b9190610996565b61035591906109ad565b905061037f565b600160055460ff16600181111561037557610375610792565b0361037f57506003545b95945050505050565b6103906105e1565b60035460408051918252602082018390527fd2691ead0fe9165109ac7ded51e4f468778ed26f01abcc871236cd4686941419910160405180910390a1600355565b6103d96105e1565b6103e3600061060e565b565b6103ed6105e1565b60045460408051918252602082018390527f737fae213b311af43116139f6a9c40715fbf155b4c8d6ec2a4752a34a1059d1c910160405180910390a1600455565b6104366105e1565b600181600181111561044a5761044a610792565b1115610474578060405163d05ccdf360e01b815260040161046b91906107ca565b60405180910390fd5b6005546040517f2c9b1fccb027a251c852a6e50626d821d4ceed3e0cde8930ae9cfe1bccd7a0ac916104ad9160ff9091169084906109cf565b60405180910390a16005805482919060ff1916600183818111156104d3576104d3610792565b021790555050565b6104e36105e1565b6001600160a01b03811661050d57604051631e4fbdf760e01b81526000600482015260240161046b565b6105168161060e565b50565b6105216105e1565b6001546040516001600160a01b038084169216907f82b35d45c357f923889a214ea247bfd97c31805b21391e139b94c750134b29bc90600090a3600180546001600160a01b0319166001600160a01b0392909216919091179055565b6105856105e1565b6002546040516001600160a01b038084169216907fd3094940c7dab2a5dc12d9ff0eb4aa41b5d6ca911fc4fa79771b4d9e39722f7590600090a3600280546001600160a01b0319166001600160a01b0392909216919091179055565b6000546001600160a01b031633146103e35760405163118cdaa760e01b815233600482015260240161046b565b600080546001600160a01b038381166001600160a01b0319831681178455604051919092169283917f8be0079c531659141344cd1fd0a4f28419497f9722a3daafe3b4186f6b6457e09190a35050565b634e487b7160e01b600052604160045260246000fd5b600082601f83011261068557600080fd5b813567ffffffffffffffff808211156106a0576106a061065e565b604051601f8301601f19908116603f011681019082821181831017156106c8576106c861065e565b816040528381528660208588010111156106e157600080fd5b836020870160208301376000602085830101528094505050505092915050565b600080600080600060a0868803121561071957600080fd5b853563ffffffff8116811461072d57600080fd5b9450602086013567ffffffffffffffff8082111561074a57600080fd5b61075689838a01610674565b9550604088013591508082111561076c57600080fd5b5061077988828901610674565b9598949750949560608101359550608001359392505050565b634e487b7160e01b600052602160045260246000fd5b600281106107c657634e487b7160e01b600052602160045260246000fd5b9052565b602081016107d882846107a8565b92915050565b6000602082840312156107f057600080fd5b5035919050565b60006020828403121561080957600080fd5b81356002811061081857600080fd5b9392505050565b6001600160a01b038116811461051657600080fd5b60006020828403121561084657600080fd5b81356108188161081f565b60006020828403121561086357600080fd5b5051919050565b60006020828403121561087c57600080fd5b815160ff8116811461081857600080fd5b634e487b7160e01b600052601160045260246000fd5b600181815b808511156108de5781600019048211156108c4576108c461088d565b808516156108d157918102915b93841c93908002906108a8565b509250929050565b6000826108f5575060016107d8565b81610902575060006107d8565b816001811461091857600281146109225761093e565b60019150506107d8565b60ff8411156109335761093361088d565b50506001821b6107d8565b5060208310610133831016604e8410600b8410161715610961575081810a6107d8565b61096b83836108a3565b806000190482111561097f5761097f61088d565b029392505050565b600061081860ff8416836108e6565b80820281158282048414176107d8576107d861088d565b6000826109ca57634e487b7160e01b600052601260045260246000fd5b500490565b604081016109dd82856107a8565b61081860208301846107a856fea264697066735822122071101065b334812d85d210fcd8bd099876a7e444e77dcae85a8e1017b60d4be764736f6c63430008160033",
  "devdoc": {
    "errors": {
      "OwnableInvalidOwner(address)": [
        {
          "details": "The owner is not a valid owner account. (eg. `address(0)`)"
        }
      ],
      "OwnableUnauthorizedAccount(address)": [
        {
          "details": "The caller account is not authorized to perform an operation."
        }
      ]
    },
    "kind": "dev",
    "methods": {
      "owner()": {
        "details": "Returns the address of the current owner."
      },
      "renounceOwnership()": {
        "details": "Leaves the contract without owner. It will not be possible to call `onlyOwner` functions. Can only be called by the current owner. NOTE: Renouncing ownership will leave the contract without an owner, thereby disabling any functionality that is only available to the owner."
      },
      "transferOwnership(address)": {
        "details": "Transfers ownership of the contract to a new account (`newOwner`). Can only be called by the current owner."
      }
    },
    "version": 1
  },
  "userdoc": {
    "kind": "user",
    "methods": {},
    "version": 1
  },
  "storageLayout": {
    "storage": [
      {
        "astId": 8,
        "contract": "contracts/Feehandler.sol:FeeHandler",
        "label": "_owner",
        "offset": 0,
        "slot": "0",
        "type": "t_address"
      },
      {
        "astId": 239,
        "contract": "contracts/Feehandler.sol:FeeHandler",
        "label": "feeTo",
        "offset": 0,
        "slot": "1",
        "type": "t_address"
      },
      {
        "astId": 242,
        "contract": "contracts/Feehandler.sol:FeeHandler",
        "label": "aggregator",
        "offset": 0,
        "slot": "2",
        "type": "t_contract(IAggregator)467"
      },
      {
        "astId": 244,
        "contract": "contracts/Feehandler.sol:FeeHandler",
        "label": "fixedNativeFee",
        "offset": 0,
        "slot": "3",
        "type": "t_uint256"
      },
      {
        "astId": 246,
        "contract": "contracts/Feehandler.sol:FeeHandler",
        "label": "usdFee",
        "offset": 0,
        "slot": "4",
        "type": "t_uint256"
      },
      {
        "astId": 251,
        "contract": "contracts/Feehandler.sol:FeeHandler",
        "label": "quoteType",
        "offset": 0,
        "slot": "5",
        "type": "t_enum(QuoteType)233"
      }
    ],
    "types": {
      "t_address": {
        "encoding": "inplace",
        "label": "address",
        "numberOfBytes": "20"
      },
      "t_contract(IAggregator)467": {
        "encoding": "inplace",
        "label": "contract IAggregator",
        "numberOfBytes": "20"
      },
      "t_enum(QuoteType)233": {
        "encoding": "inplace",
        "label": "enum FeeHandler.QuoteType",
        "numberOfBytes": "1"
      },
      "t_uint256": {
        "encoding": "inplace",
        "label": "uint256",
        "numberOfBytes": "32"
      }
    }
  }
}